:020000040800F2
:10000000282F002045010008D3600008A55E0008E5
:10001000D160000859540008816100080000000008
:10002000000000000000000000000000D760000891
:100030005B54000800000000D5600008D96000088B
:100040005F0100085F0100085F0100085F01000810
:100050005F0100085F0100085F0100085F01000800
:100060005F0100085F0100085F0100085F010008F0
:100070005F0100085F0100085F0100085F010008E0
:100080005F0100085F0100085F0100085F010008D0
:100090005F0100085F0100085F0100085F010008C0
:1000A0005F0100085F0100085F0100085F010008B0
:1000B0005F0100085F0100085F0100085F010008A0
:1000C0005F0100085F0100085F0100085F01000890
:1000D0005F0100085F0100085F0100085F01000880
:1000E0005F0100085F0100085F0100085F01000870
:1000F0005F0100085F0100085F0100085F01000860
:100100005F0100085F0100085F0100085F0100084F
:100110005F0100085F0100085F0100085F0100083F
:100120005F0100085F0100085F0100085F0100082F
:10013000DFF80CD000F04CF800480047E9630008F5
:10014000282F00200648804706480047FEE7FEE7C4
:10015000FEE7FEE7FEE7FEE7FEE7FEE7FEE7FEE777
:10016000396100083101000810B5441A0346944271
:1001700009D28418114403E011F8013D04F8013D4F
:10018000521EF9D210BD40EA0104A40703D009E0D1
:1001900010C9121F10C3042AFAD203E011F8014B50
:1001A00003F8014B521EF9D210BDD2B201E000F8A3
:1001B000012B491EFBD270470022F6E710B513460B
:1001C0000A4604461946FFF7F0FF204610BD00001E
:1001D000064C074D06E0E06840F0010394E8070094
:1001E00098471034AC42F6D3FFF7A6FF647E0008B0
:1001F000847E000838B50C46054600F0F7F8226802
:10020000AB68DA6262681A63A2685A63520707D55C
:100210001A68596883E806009A68D968DA609960B4
:10022000A2899A84226912B122EAE2721A6238BD66
:100230002DE9F041044688461E46174600F0D6F8E0
:10024000A5686822414605F58A70FFF78DFF2046B4
:10025000B8472046B04723699B689847A862BDE825
:10026000F081000010B5044600F0C0F8A368114A00
:100270000021C3F8AC20104AC3F8BC10C3F8A82072
:100280000E4AC3F8D010C3F8B0200D4AC3F8B82006
:100290000C4A10685268C3F8B400C3F8C820DA8C5E
:1002A000094822F00302DA84084AC3F8CC00C3F8F4
:1002B000942010BD51500008515100081150000801
:1002C0000F4C00083C000020254D0008B94F0008E5
:1002D00010B5044600F08AF8A468104B0821C4F851
:1002E000EC300F4B2046C4F8F0300E4BC4F8F4301D
:1002F0000D4BC4F8F8300D4BC4F8A0300C4BC4F8CB
:10030000A430D4F8CC30C4F80431D4F894309847F1
:100310001023A363074B636410BD00BFD1330008F3
:10032000E14100083903000871040008B54B0008DA
:1003300019520008D87C0008F7B584680E46E38C93
:1003400017469B0743D5D4F8083120469847D4F880
:100350000C31314605463A4620469847D4F8983045
:1003600006461BB10022012120469847A369226955
:100370009D42D4BF002301239542B8BF43F001033F
:1003800062699642B8BF43F0010313B9E3699E4224
:100390000ADD62682368013A00920022D4F8A8704E
:1003A000013B11462046B8472946D4F8AC303246C6
:1003B00020469847D4F8A03020469847D4F8983083
:1003C00005467BB101220021204698470AE0D4F877
:1003D000AC30204698472046D4F8A03003B0BDE8A2
:1003E000F0401847284603B0F0BD000038B58568D6
:1003F00004469DB94FF4BE7000F088F9084B4FF4E5
:10040000BE721B68A06029469847A3680222DA845E
:1004100001221A62034A1C64C3F8102138BD00BFD0
:100420004C00002029040008F0B5104C91B06D4636
:10043000264607460FCE0FC596E80F00203485E804
:100440000F000FCC08AD0FC594E80F0085E80F0032
:100450007B6B10AA02EB830353F8402C53F8203C2B
:10046000C7F80821C7F80C3111B0F0BD8864000846
:100470002DE9F34184689846E38C0E469B071746A6
:100480002ED5D4F80831204698470546D4F80C31CB
:100490003A46314620469847A36922699D42D4BF17
:1004A000002301239542B8BF43F001036269064669
:1004B0009042B8BF43F0010313B9E36998420ADDE3
:1004C00062682368013A00920022D4F8A870013BC8
:1004D00011462046B847D4F8AC303246294601E0F0
:1004E000D4F8AC302046984741462046D4F8A43092
:1004F00002B0BDE8F04118474D4B2DE9F04F1A68A6
:100500008BB0D169CC69A389834208D8E58985423B
:1005100005D32568C31A06954FF0FF3613E0A3688C
:10052000002B7CD01D88A84279D35E88864276D382
:100530005B68401B666880B203EB8005069633F962
:100540002030B5F90260581C099368D091F818B0B2
:10055000A17CB2F92A900BFB01F34846B2F9227054
:10056000B2F92480079394F810A001F087FE079B4E
:10057000089018462E4D099B2968CA69896B059118
:10058000069900FB03100490A37C414603930123CA
:100590000293D37E38460193937E524600935B4686
:1005A00001F064FB731C1AD049F0020001F066FEF2
:1005B0002A680699D369926B38460592079A02FB1E
:1005C00006160496A27C4146039201220292DA7E2C
:1005D00001929B7E524600935B4601F047FB2B68DD
:1005E000DB695A7E1B7E9A4215D9B9F1020F12D0EF
:1005F00089F0040001F042FE0D4B1B68D869437E70
:10060000827E017EC07E434400FB01810AFB0272B0
:10061000384601F095FC9DF8200001F02FFE044BB8
:10062000617C1A68538C0B4453840BB0BDE8F08F87
:1006300038000020044B1B68DB69DB6909B11A7CB8
:100640000A60587C704700BF3800002002230B80EE
:100650007047C3699A898A4202D8DA898A420FD2DE
:10066000986880B1038899420CD342888A4209D3A2
:10067000C91A436833F82100C043C0F3C030704743
:10068000012070470020704708B102F035BD704767
:1006900073B50646FFF7F8FF054660B100F088F82D
:1006A000064B02AC44F8040D1B6832460021984703
:1006B000204600F08BF8284602B070BD4C000020A8
:1006C000024B21F00301186059607047A0280020F8
:1006D00010B5044660B1074B5B6B03EBC003596870
:1006E000486802F0B7FC2046BDE8104004F050BA5C
:1006F00010BD00BF3C2A002028B1034BDA6B02601A
:1007000002B15060D86370473C2A00202DE9F041C7
:100710000746264E033704F005F927F00307306C2F
:100720000437F26B874238BF0746144634B154F899
:10073000043C9F4223682CD01C46F7E7F368B26B59
:1007400002EB030858F8045CC5EB08052B6833B1CD
:10075000204604F03BFB58F8045CC5EB08052B6809
:100760000BBB6B689F421EDC28461C1D04F00EFB71
:10077000F3686868DB1BF3607369E41B3B44C01BD0
:100780002C44736102D0294602F064FC44F8047CD6
:1007900009E00BB161685960616801B10B60A24268
:1007A00001D12368F3632046BDE8F0813C2A002094
:1007B000054BDA690132DA615A6B12F830300133D5
:1007C00002F8303000F01AB83C2A002030B5036837
:1007D000094953F8085C4C6B14F83530012B03D9E8
:1007E000CA690AB1013ACA61013B04F835300023F5
:1007F0000360184630BD00BF3C2A0020034B5B6BF2
:1008000003EBC00040680830704700BF3C2A00205E
:10081000C3B2CAB29A1A92B210B514B2002CBCBFBD
:10082000524214B204FB04F2C0F30723C1F30724BD
:100830001B1B9BB21CB2090C002CC1EB1041B8BFB2
:100840005B4289B208B2B8BF1CB204FB0423002883
:10085000BCBF494208B280B200FB003010BD0000AE
:10086000002110B5084600F0CDF9BDE8104043F670
:10087000FF7302491A46084600F002B801C0FFFFA4
:100880002DE9F3410446042016461F460D4601F0AB
:10089000F5FC134B8046DB686846DA6C1B6D14442C
:1008A0001D4416441F44ADF80040ADF80460ADF897
:1008B0000250ADF8067002F047FA28B9404601F040
:1008C000DDFC02B0BDE8F0813B46324629462046B9
:1008D00001F036FB02F04EF90028F5D1EEE700BF3B
:1008E0002C000020012BF8B506460D4617461C4685
:1008F00001DD0020F8BD1C20FFF708FF0028F8D01C
:100900000DB1056109E0094B53F8241029B10B68BA
:100910000BB11946FBE70B69036100238360846117
:100920008782C66003604360F8BD00BF0C2B0020C7
:1009300038B51D46FFF7D6FF044648B100F00EF863
:10094000E3681B6823B9034B16351B6843F8254041
:10095000204638BD38000020FFF7CEBE30B508B9BC
:10096000012030BD8469012CFADC1B4B1A789442BB
:10097000A4BF621C1A70194A52F8243015461BB9DC
:1009800042F82400184630BD5A680AB11346FBE706
:10099000C2681268D9680968914203DD1B68002BA0
:1009A000F8D1DDE709D1818A012906D1196821B181
:1009B0000B46C96809688A42F8DD5A6812B11060AE
:1009C000426001E045F824005860984208BF0023C7
:1009D0000360002030BD00BF072B00200C2B00203F
:1009E00081690A4A52F821309842036804D142F8DA
:1009F00021300BB100225A60426802B113600368D3
:100A000003B15A6000230360436070470C2B002041
:100A1000012809DC054B53F8200020B1C3681B688E
:100A20001BB10068F9E77047002070470C2B0020CD
:100A30002DE9F04F054685B000287FD000F0A6F8DC
:100A4000404C07462368A146B3F9228000F0B2F873
:100A5000226886B2938C9B1B93842B78002B61D0E9
:100A600047F6FF71284600F0C7FF01468246284638
:100A700000F092FF2268938D03F00303012B04D052
:100A8000022B04D190FBF3F302E0034600E00023C5
:100A9000518C1FFA80FBCB1A9BB219B25184ADF86E
:100AA0000810B2F924200BF1FF310B44ADF80C30E3
:100AB000ADF80A20BBB2013A1A44ADF80E205146F7
:100AC00002AA2846019300F013FF2268BDF80A101D
:100AD00028469184514600F0D1FD2A5C05EB000EBA
:100AE0000A2A019B01D00D2A12D12268918D01F0B2
:100AF0000301013901298ABF118CA2F82280518497
:100B00009EF800100A290AD1918C0B44938406E0C8
:100B1000BDF80800D9F800308344A3F822B09EF84D
:100B2000003043B923689A8C16449A8D9E8422F033
:100B300003029A8502E00EF101058EE705B0BDE8DB
:100B4000F08F00BF38000020024B1B6859849A8444
:100B5000FFF76EBF38000020034B082153F8200038
:100B6000C3689B6A184700BF0C2B0020024B002172
:100B70001B68DB695B68184738000020024B1B6864
:100B8000DB695B68184700BF38000020024B1B6818
:100B9000DB69587E704700BF3800002004483523C9
:100BA000037034238370C37061230371704700BFE7
:100BB000240000200A4B1A68938D03F00C03082BC5
:100BC00007D00C2B05D0042B07D1D369187E013830
:100BD0007047D369187E400870470020704700BFF7
:100BE00038000020024B53F820301B69186870470A
:100BF0000C2B0020024B53F820301B6958687047BB
:100C00000C2B0020024B1B685884998400207047ED
:100C10003800002090B583B000AF334A324B1B68D8
:100C200023F001031360314B01221A6000BF2F4BE8
:100C30001B68002BFBD12E4B2E4A1A602C4B1B68D5
:100C40002D4A934200D0FEE700F008FE2B4B2E22E7
:100C50001A7004F089FC2A4803F022FE04F0AAFB73
:100C6000786001F0CBF90346002B0CBF0123002371
:100C7000DCB201F0CDF90346002B0CBF01230023A9
:100C8000DBB22343DBB2002B09D001F0BDF90446EF
:100C900001F0C4F903461946204601F0E9FA0021A3
:100CA000002000F0ABFC01F0C7FD164B1B68002BC9
:100CB00012D00DE0134B1B681B68002B03D0114BA7
:100CC0001B681B6898470F4B1B685B680D4A1360D5
:100CD0000C4B1B68002BEDD10B4B01221A707B686B
:100CE00018460C37BD4690BD002000E00830024099
:100CF00000300240C2A507F4CDB5E8B5002B0020B6
:100D0000B828002030290020062B002037B50446E3
:100D1000D0B10E4B1B681B6E984201D100F03CFC19
:100D20002046FFF745FD0190406908B100F0CBFC7B
:100D300002AD55F8043D1868FFF70EFE2846FFF790
:100D400045FD2046FFF7C4FC03B030BD380000204D
:100D500037B5044670B1FFF72BFD036802AD1B6980
:100D600045F8040D9B68984701F013FC044628469B
:100D7000FFF72CFD204603B030BD13B558B1FFF787
:100D800017FD02AB43F8040D00F118041846FFF7F5
:100D90001DFD2046FFE702B010BD00002DE9F04F19
:100DA0009BB0089109920546002800F09983FFF74F
:100DB000FFFC1AAB43F81C0D44691846FFF706FD0B
:100DC0002846FFF7C5FF08280746A54E02DD002C80
:100DD00000F0C98101230027284619930D93189725
:100DE000FFF7E6FC0268B0F90A3012690E93536807
:100DF00032680DF1680949F8140D0469D0F81480BF
:100E0000D0F80CA0B0F908B0507C0C93FFF7A4FE0A
:100E100032680B90507CFFF7EDFE0A904846FFF7D2
:100E2000D5FC082C0A9A0D9B04D9102C8CBF0423E6
:100E3000022305E0012C03D118AB0D940A9301E0C5
:100E40000D930A970C9B934200F0DF803368587C27
:100E5000FFF7C8FE0F904FEA8B00FFF715FC1090CC
:100E6000002800F03D832846FFF787FF0546B8F1CC
:100E7000000F00F0B9804046FFF79AFC05EB0A032B
:100E800011930023DDF8249016900993119B099A81
:100E9000CAEB03070E9B934240F3A28016980023EF
:100EA000179383680DF15C085B69099A414698477E
:100EB0008345054628D11098FFF77AFC0F9B082C34
:100EC00001930C9B0146149000935A460B9B3846A5
:100ED00002D902F0E7F901E002F003FA0A9B1AAD29
:100EE000059355F8183D08980493002303930B9B32
:100EF0005A460293012301930093494600F0B6FE3F
:100F00002846FFF763FC62E0012C02D04FF0010895
:100F100057E0002D5BD01798089E00F0070306935A
:100F20000A9B2A460593082390FBF3F33B44049362
:100F3000012302930193009349463044CDF80CA05D
:100F400001F0FCF9179B16981D44836817955B699F
:100F5000099A414698470546DBE71098FFF728FCB9
:100F60000F9B01461490019317980C9B0D9E082C23
:100F700000932A460B9B00FB067025D902F092F9DC
:100F80000A9B17980593149B089E049300230393D0
:100F90000B9B2A464946029330440123CDF8048036
:100FA000CDF8008000F062FE14A8FFF70FFC179B3D
:100FB00016981D44836817955B69099A17A9984785
:100FC0000546002DC9D102E002F08BF9D8E7099B54
:100FD00009F1010901330993119B5344119355E71A
:100FE00016A8FFF7F3FB0EE00A9B0490059301237C
:100FF00001930093CDF80CA002940E9B5A460999D8
:10100000089800F033FE109868E22846FFF7B5FE16
:101010000746B8F1000F00F09A804046FFF7C8FB82
:10102000002516900E9BAB4240F38D80169800234E
:10103000179383680DF15C085B692A46414698471F
:101040008345064626D12E46169806F10109836887
:101050004A465B6941469847834503D14E46F3E7CC
:10106000380000200A9BC5EB0608099908F1010821
:10107000059301230497019300932944CDF80CA014
:10108000029443465A46089800F0F0FD0AFB0877A0
:10109000354656E0012C099B04D02B440B934FF0AE
:1010A00001092BE0A04603EB05092EB3DDF85CE057
:1010B00008980EF0070306930A9B3246059308230F
:1010C0009EFBF3F33B447044049349460123CDF85F
:1010D0000CA0CDF80880CDF80480CDF8008001F098
:1010E0002DF9179B16981E44836817965B692A464C
:1010F00017A998470646D8E7574422E0002EFBD0B0
:101100000A9BDDF85CE005930D9B089803FB0E73CA
:101110003246704404930B990123CDF80CA002943D
:10112000CDF80490CDF8009000F0A0FD179B169824
:101130001E44836817965B692A46414698470646CF
:10114000DCE701356EE716A8FFF740FBC8E10A9B14
:1011500004900593012301930093CDF80CA0029411
:101160000E9B5A463AE02846FFF722FB83461AA810
:10117000BBF90A3040F810BDDBF800200B93DBF818
:101180000C30D2F810800C93BBF90840FFF71EFB1F
:101190003268D8F80490507CA14A52F82020166991
:1011A00033680A93FFF7D8FC08280C9B06D910284F
:1011B0008CBF4FF0040A4FF0020A01E04FF0010A21
:1011C000B04510D1002205922246039301230BF172
:1011D0001800019300930B9B0490029709990898BB
:1011E00000F044FD7CE1202F40F0A2800AFB04F0D7
:1011F000FFF74AFA0D90002800F07281FFF7D8FA45
:1012000018902846FFF7D4FA169033694FEACA02BD
:1012100000F118054FEA840B0C9273B3DDF82480BB
:101220004FF00109BAF1020F05D0BAF1040F02D054
:10123000BAF1010F06D1284637695346224618995C
:10124000B8475D440023189A059303930C9B0492BE
:10125000029322460123CDF80490CDF80090414638
:10126000089800F003FD0B9B099A08F1010713444D
:101270009F4200F02C81B846D4E7099F1E460B9B85
:101280004FF001093B440993BAF1020FDDF8608089
:1012900016D0BAF1040F24D0BAF1010F30D1434671
:1012A0002A4652F8040B0E930A9B0B9298470E9B0A
:1012B0000B9A03F8010BE11A18EB010FF1D11EE0B4
:1012C00043462A46A04652F8040B0E930A9B0B9203
:1012D00098470E9BB8F1010823F8020B0B9AF2D144
:1012E0000DE02A46234652F8040B0E930A9B0B92FC
:1012F00098470E9B48F8040B013B0B9AF3D15D44D1
:10130000189B059604930C9B03960293CDF80490CA
:101310000123CDF8009022463946089800F0A6FC3B
:10132000099B07F10108434500F0D1804746ABE730
:10133000102F40F0D58004FB0AF0FFF7A5F90D90BF
:10134000002800F0CD80FFF733FA18902846FFF709
:101350002FFA1690336900F1180713B1D8F814303A
:1013600053B94FEACA03099D0C930B9B66002B44AB
:101370004FF0000B099383E0B0F908008000FFF7FD
:1013800083F90C9018B1FFF713FA179001E00C9B4A
:101390001793179B002B00F09A8063000A93DDF8E7
:1013A00024B04FEACA030E93BAF1020FDDF8609041
:1013B00006D0BAF1040F05D0BAF1010F11D101E046
:1013C000534600E00223384622461799D8F81450B5
:1013D000A84753462246494617983569A8470A9BAD
:1013E0001F440023059303930E9B189A0293012335
:1013F00004920193009322465946089800F036FC67
:101400000B9B099A0BF101091344994501D0CB4676
:10141000CAE717A8FFF7DAF90C98FFF759F956E071
:101420000C2B0020BAF1040F41D0BAF1010F11D1F9
:1014300043463A4632F8020B0E930B92C8470A9B7A
:1014400098470E9B0B9A03F8010BE11A18EB010F5A
:10145000F0D13744189BCDF814B004930C9BCDF811
:101460000CB0029301230193009322462946089869
:1014700000F0FCFB099B05F10108434527D04546D8
:10148000BAF1020FDDF86080CCD143463A46A0465F
:1014900032F8020B0E930B92C8470A9B98470E9B9B
:1014A000B8F1010823F8020B0B9AF1D1D1E73A46C3
:1014B000234632F8020B0E930B92C8470A9B9847BB
:1014C0000E9B48F8040B013B0B9AF2D1C1E716A81A
:1014D000FFF77CF918A8FFF779F90D98FFF7F8F8EE
:1014E0001BB0BDE8F08F00BF10B538B309B30AB325
:1014F000B2F90040B1F90030A342A8BF2346B2F9C7
:1015000002400380B1F90230A342A8BF2346B2F9DA
:1015100004404380B1F90430B2F90620A342B8BFB9
:1015200023468380B1F906309342B8BF1346C38087
:1015300010BD11460B6803604B68436010BD68B175
:10154000038889B20B440380838892B2194443888C
:10155000818013444380C3881A44C2807047B0F925
:101560000220B1F906309A4214DCB1F90220B0F938
:1015700006309A420EDCB0F90020B1F904309A42EC
:1015800008DCB0F90400B1F900308342CCBF002080
:10159000012070470020704708B500F0FFFD00F003
:1015A000BBFEBDE8084001F00BB8000070B5084D67
:1015B00001282B6804465E7C08D8FFF729FA28B179
:1015C0002B685C74FFF7E8FF024B1C60304670BD6F
:1015D00038000020402F002000F000BE014B586072
:1015E000704700BF2C000020034B1B68DA6900B174
:1015F000D8611046704700BF38000020094B10B476
:101600001880094B0A461980084B1B68597C084B07
:1016100053F82130D9680C6A01461846234610BC9D
:10162000184700BF022B0020042B002038000020A8
:101630000C2B0020024B1B6803B11847704700BFFA
:10164000D0290020024B1A6802B91860FFF7F2BFD8
:1016500070290020F8B5084E0468336805461B68F9
:1016600020469847336807465B68204698472044E1
:1016700028603846F8BD00BF182B0020F8B5064694
:101680000D46064F00243DB13B6830465B689847E5
:10169000013D06440444F6E72046F8BD182B00201F
:1016A0002DE9F843054688469946089C1444AB68E2
:1016B000561C5F6841464B462846B847B4423246FE
:1016C000F5D1BDE8F88337B50546FFF771F8848991
:1016D00002AB013C24B243F8040D84811846FFF7A5
:1016E00075F814B92846FEF7F3FF03B030BD082A99
:1016F00010B50EDD102A0ADC034600EB410150F85C
:10170000042B23F8022B8B42F9D1012010BD0020BD
:1017100010BD022A2AD10446036801294FEA831327
:10172000DBB220D0426802294FEA021202F03002F6
:1017300043EA020301D1083016E0826803294FEA28
:10174000820202F00C0243EA020301D10C300BE0EA
:10175000C268043902F003021343103004F8013B5D
:101760000029D9D1D1E704300021F7E7042A15D1A7
:1017700004460129036818BF42684FEA0313DBB22D
:101780001BBF02F00F021343002102390CBF0430CB
:10179000083004F8013B0029EBD1B6E7012A0346E3
:1017A00054D11A6801294FEAC212D2B24BD05C68F8
:1017B00002294FEA841404F0400442EA040201D1F1
:1017C000083341E09C6803294FEA441404F02004E4
:1017D00042EA040201D10C3336E0DC6804294FEA06
:1017E000041404F0100442EA040201D110332BE087
:1017F0001C6905294FEAC40404F0080442EA040203
:1018000001D1143320E05C6906294FEA840404F016
:10181000040442EA040201D1183315E09C69073937
:101820004FEA440404F0020442EA040217BFDC69F0
:101830001C3304F00104224318BF203300F8012BAD
:101840000029AED161E704330021F7E7014450F8E5
:10185000042B03F8012B9942F9D156E7F0B51F4D3F
:1018600085B0D5F88030002B36D16A466E4601230C
:10187000C5F880301A4B03F10807144618685968F8
:10188000083303C4BB422246F7D1186899889B7974
:101890002060A3713346A180124C13F8012B04F889
:1018A000012B1A78002AF8D1FFF778F910F8013BDC
:1018B000224604F8013B0378002BF7D1537003F064
:1018C00043FE04F0FBFA084B0848C5F8983005B011
:1018D000BDE8F04000F078B905B0F0BDB4280020B4
:1018E0007864000838290020914A00084C2900201B
:1018F000274BF7B51B6805460E4663B1002001F083
:1019000023FA002841D06A463146284601F00AFDF4
:1019100001F030F9F5E76B46106851681D4C03C3C0
:101920002268BDF80030B2F84C70B2F850003B4469
:10193000BDF80210BDF80420ADF80030BDF8063047
:10194000014403443A446846ADF80210ADF804205F
:10195000ADF8063001F0F8F9236840B9D96C5A8C1B
:10196000521A5A84196D9A8C521A9A840DE0BDF855
:10197000002031465A84BDF8022028469A846A46DF
:1019800001F0D0FC01F0F6F8E6E703B0F0BD00BFCF
:10199000142B00203800002037B5154A02AB43F85D
:1019A000081D01901268194690470190E8B1114B4B
:1019B0001B68DB695C690CB124680CB9254602E040
:1019C0000099A04711E0009B013B002B009307DB2F
:1019D00001A8FFF73FFE0446FFF7C8F80544F2E709
:1019E000204600F025F82844FFE703B030BD00BFD3
:1019F000440000203800002037B50D460190044611
:101A000088B10A4B1B68DB695C6954B1646844B1F6
:101A1000A04709E001A8FFF71DFE20B10A2802D067
:101A20000134AC42F6DB204603B030BD3800002064
:101A300013B5002402A941F8044DFFF79FF8019B5C
:101A40009842ACBF2046181A02B010BDB1F9003060
:101A5000B0F900209A42B8BF0380B0F90220B1F972
:101A600002309A42B8BF4380B0F90420B1F9043083
:101A70009A42C8BF8380B0F90620B1F906309A4275
:101A8000C8BFC380704770B5B1F90030B2F90050DB
:101A900006469D42B8BF1D46B1F902300580B2F935
:101AA0000200B1F904408342B8BF0346B2F9040012
:101AB00073808442A8BF0446B2F90600B1F906203B
:101AC000B4808242A8BF0246A542F28004DC934261
:101AD000CCBF0020012070BD002070BD024B01462C
:101AE0001B68587C00F002B8380000200128F7B5C8
:101AF00006460C4662DC334D6B6803B19847012CF7
:101B000004D0022C20D0002C58D133E005EB860500
:101B1000AF68AFB93046FEF77BFF019000284DD08B
:101B2000C3680D215B6A01A898470346002845D089
:101B3000214601989847AB6838460133AB603EE0D8
:101B4000781CA86020463AE03046FEF761FF01901D
:101B5000002833D0C3680D215B6A01A8984704466A
:101B600000282BD02B6803B1984702210198A04789
:101B7000002024E0B4002B199B68012B01D0012028
:101B800015E03046FEF744FF01900028F7D0C36807
:101B90000D215B6A01A8984706460028EFD0094B43
:101BA0001B6803B1984700210198B04700202544E5
:101BB000AB68002B18BF013BAB6000E0012003B015
:101BC000F0BD00BF202A002080B483B000AF786051
:101BD000054B1A687B685A60034A7B68136000BF34
:101BE0000C37BD4680BC70472C29002070B5840797
:101BF00042BF02F1FF3201800230540824D0032C8E
:101C0000234601EB014502D800EB830317E026468B
:101C100000F11003043E032E43F8105C43F80C5C03
:101C200043F8085C43F8045C03F11003F2DC043C65
:101C3000A3085E1C00EB0610A4EB8303E4E79842C4
:101C400002D040F8045BFAE7D30748BF018070BDBB
:101C5000044B1B685A7C044B53F822301B691B68E9
:101C6000184700BF380000200C2B00202DE9F04F52
:101C70008FB0189CDFF814E20294199C1D9E089402
:101C8000DEF800E01B9C054603940091904601930A
:101C90001A9F1C9C0496BEF1000F02D0DEF8004093
:101CA0007AE0029B089A1343012B7AD1754B019974
:101CB0001868009BB0F90A20D31A002B07DDC91A57
:101CC000002940F3DB80039E06FB034400E0009AFA
:101CD0009DE848001E44B0F90E30013EF61A002E71
:101CE00003DD891B002940F3C98005EB0803B0F927
:101CF0000C60013B9B1BB0F90860002BC8BFC3EB15
:101D00000808B54231DA731B082FC3EB080827D047
:101D10000DDC022F14D0042F1AD0012F26D123F06E
:101D2000070604EBE304354403F007031EE0182F15
:101D300018D0202F16D0102F18D104EB430413E035
:101D400023F0030604EBA304354403F003030DE082
:101D500023F0010604EB6304354403F0010305E0BE
:101D60001C4401E004EB830435460023B8F1000F66
:101D700040F38480467C444850F82600049ED0F806
:101D80000CE01C93039B18911A93294643461D9619
:101D90001B941997DEF80440A4460FB0BDE8F04F3D
:101DA0006047F346C7F108030B93029BDFF8D4A00A
:101DB000013BCDF818E00D93069B019A93425DDA42
:101DC000009A089B13440993013B0A93DAF8003008
:101DD0000A99B3F90A208A4248DCB3F90E30009A16
:101DE0009A4243DC2E464FF000090794CDF8149038
:101DF000059B43453ADAB9F1000F06D1079B4FF036
:101E0000080993F800B0013307930B9B0BFA07F214
:101E10004BFA03F313F0FF015FFA82FBC7EB0909EA
:101E200004D1DAF80020127C920717D4DAF80020E7
:101E3000D26B10680C90049810B150F8213000E07B
:101E4000DBB213600D9A0A9B32440099304600F0D1
:101E500077F8DAF800300C9ADB6B1A60059B029A6F
:101E600001330593334613441E46C1E7069B0133F5
:101E70000693039B1C44099B00939DE70FB0BDE8AC
:101E8000F08F00BF380000200C2B0020142B002006
:101E9000114B30B41C680D46B4F90A308B4219DC82
:101EA000B4F90E30994215DCB4F90810B4F90C30CD
:101EB0008142B8BF01469342A8BF1346994209DC4C
:101EC000607C064A52F82000C26894682A46A446FC
:101ED00030BC604730BC7047380000200C2B00201D
:101EE0000A46154B30B41B680446B3F90A109142F8
:101EF00020DCB3F90E108A421CDCB3F908108142D1
:101F000018DCB3F90C10884214DC197C587C11F0F1
:101F1000010F0A4951F8200004D0C368214630BCA3
:101F2000DB691847C168DB6B8D691B682146AC46CD
:101F300030BC604730BC7047380000200C2B0020BC
:101F400073B5134C2468B4F90850B4F90C60854299
:101F5000B8BF05469642A8BF1646AE4215DBB4F997
:101F60000A208A42B8BF0A46B4F90E108B42A8BFB5
:101F70000B469A4209DC607C064951F82000C16892
:101F800000930C6933462946A04702B070BD00BFDC
:101F9000380000200C2B0020082102F0C2BB0000FA
:101FA000024B1B68587C00F003B800BF38000020CB
:101FB000092102F0B6BB10B50020FEF729FD041C74
:101FC0004FF0010018BF0124FEF722FD00B10134DB
:101FD000204610BD024B1B68587C00F003B800BFC0
:101FE0003800002010B5FEF713FD28B1BDE8104001
:101FF000C3680221DB6A184710BD0000014B186856
:10200000704700BFE4290020012002F0D1BB00008E
:10201000014B5868704700BFE4290020022002F0FD
:10202000C7BB00F001B800002DE9F843044618B31F
:1020300087681FB3144D286820B32268B2F5807FEB
:102040001FDC124B00261B689A42A8BF1A46904616
:10205000464509DA57F82600D5F80090FFF7F8FD55
:1020600049F826000136F3E7094B1B680BB12046FF
:1020700098472868BDE8F883BDE8F8833846BDE88E
:10208000F8830020BDE8F883242B002054000020B2
:10209000D8290020044B1B685A7C044B53F822308B
:1020A0001B695B68184700BF380000200C2B00201C
:1020B000074AC0F34513D15C064AC0F3C423D35C7E
:1020C00000F01F00105C1B0403EB01231844704751
:1020D0005C7C00089C7C000838B50A4D2C6864B90B
:1020E000094B18688000FEF711FB286038B10748DB
:1020F000074B40F8043FFFF767FD002038BD012083
:1021000038BD00BF242B002054000020D829002017
:10211000D94A00082DE9F74FFFF74DFF1C4E8046C6
:10212000B146DFF874A0002444452DDA2046FEF7BE
:102130006FFC38B33368204693F811B05C74FFF736
:102140002BFF082804DDD9F8003083F811B019E01E
:102150005AF824301A690F4B9A42F4D02046FFF700
:1021600027FF034600259D42EDDAEFB23846019382
:10217000FFF790FF39460246204600F085F801350A
:10218000019BF0E70134CFE703B0BDE8F08F00BF5B
:10219000380000204C7D00080C2B00200D4B10B5A2
:1021A0001C461A68517C0C4A52F8210040B1C368A1
:1021B00013B11B68042B01D00068F7E7FEF710FC91
:1021C000236800221A6603F108025A61BDE8104034
:1021D00000F02EB8380000200C2B0020014B1B68AB
:1021E0005B68184750000020044B1B681A7C52079C
:1021F0004CBFDB6B9B6B1860704700BF3800002042
:1022000037B50546084C694623685A7C074B53F896
:102210002200C3681B6B984720686A46294608302D
:10222000FFF731FC03B030BD380000200C2B00203C
:10223000044B1968044B4A7C083153F82200C368E8
:102240001B6B1847380000200C2B0020014B1B682B
:102250001B68184750000020044B1B681A7C52076B
:102260004CBF9B6BDB6B1860704700BF38000020D1
:10227000014B83E803007047E4290020014B1B68F1
:102280009B6818475000002037B50C461546FEF7EE
:10229000BFFB019008B901200CE0C36810215B6A04
:1022A00001A8984703460028F5D001982A46214600
:1022B0009847002003B030BD37B50C461546FEF7F1
:1022C000A7FB019008B901200CE0C3680B215B6AF1
:1022D00001A8984703460028F5D001982A462146D0
:1022E0009847002003B030BD37B50C461546FEF7C1
:1022F0008FFB019008B901200CE0C3680A215B6ADA
:1023000001A8984703460028F5D001982A4621469F
:102310009847002003B030BD10B5074C2368186BF8
:10232000FFF796FCFFF798FF2368586BFFF790FCC8
:10233000BDE81040FFF758BF380000202DE9F04FEE
:102340008FB0189DDFF8C8E10295199DDEF800E016
:1023500008951B9D079003950C4617460193DDF8E1
:1023600068A01C9EDDF874B01E9DBEF1000F02D067
:10237000DEF8004054E0029B089A1343012B54D12D
:10238000614B1868B0F90A20531A002B0ADD019935
:10239000C3EB010EBEF1000F40F3B280039901FBC5
:1023A000036602E00A46DDF804E0019B1C44B0F934
:1023B0000E30013CE41A002C05DDC4EB0E0EBEF11C
:1023C000000F40F39D80079BB0F90C103B44013B8C
:1023D0005B1A002BC8BFFF1A079B591BB0F90830C6
:1023E000994209DA5B1A1D44FF1A23F0070306EB32
:1023F000E506194405F00705002F40F38180407C75
:10240000424B039C53F82000C368CDF874B01C9570
:102410001B961A94CDF864A0CDF860E05C683B464A
:10242000A4460FB0BDE8F04F60477546CAF10803F7
:102430000B93029BDFF8D090013BCDF814E00D9395
:10244000059B019A93425BDA089BE3180993013BD1
:102450000A93D9F800300A99B3F90A208A4248DC75
:10246000B3F90E309C4244DC079B4FF000080696FF
:102470000093CDF81080049BBB423ADAB8F1000F0C
:1024800005D1069B4FF008081D78013306930B9B7E
:10249000CAEB080845FA03F313F0FF0105FA0AF541
:1024A000EDB204D1D9F80020127C920719D4D9F8E2
:1024B0000020D26B10680C90BBF1000F02D05BF8CB
:1024C000213000E0DBB2136000990D9A0A9B0A44A8
:1024D00000982146FFF734FDD9F800300C9ADB6BE9
:1024E0001A60049B029A01330493009B13440093E7
:1024F000C1E7059B099C01330593039B1E449FE79D
:102500000FB0BDE8F08F00BF380000200C2B00207A
:10251000142B002000283BD030F0010329D030F0EC
:10252000030328D030F0070327D030F00F0326D064
:1025300030F01F0325D030F0FF0324D020F4FF73C8
:1025400023F001030BB320F47F6323F00F03E3B107
:1025500020F4FF4323F07F03BBB1030C1B04A3B1A2
:10256000830C9B049BB110F07F4F0CBF18202020E0
:1025700070470120704702207047032070470420F5
:1025800070470520704708207047102070471220C0
:10259000704708B5FFF7BEFF01280FD0831E062B3A
:1025A00009D9A0F10903072B07D911380F288CBFCF
:1025B0000020202008BD082008BD102008BD000014
:1025C000024B01221B6883F854207047380000201A
:1025D0002DE9F043044687B0002839D0FEF7E8F82B
:1025E000034604AD019003C885E8030001A81E6AF4
:1025F000D3F82890FEF7EAF8204600F07DFB074666
:1026000030B3204600F010F919F0020F804604D0D4
:1026100001463246284600F0D4FC2046FEF7C8F8B2
:1026200001904046FEF7C4F803903846FEF7C0F824
:10263000039B019AD96906620290116201A8DC61CC
:10264000FEF7C4F803A8FEF7C1F802A8FEF7BEF82B
:1026500007B0BDE8F08300002DE9F74FDDF830A0AA
:1026600098464E4B05460E461746D3F80090BAF1F1
:10267000000F28D14A4B1B8853B34A4B1B685A7C26
:10268000494B53F822305A1C012A21D99A46504608
:10269000FEF78EF8B0F90010B0F9022001900D4459
:1026A00016441FB9B0F904305F1A0137B8F1000FB2
:1026B00005D1B0F90630C2EB030808F1010801A802
:1026C000FEF784F804E0BAF1FF3FE0D14FF0000AD2
:1026D0000F982C30FDF7DCFF0446002859D0304A13
:1026E0000D9B0DF1080B49EA030913880133138090
:1026F000FEF75EF80E9B826A03612C4B4BF8080DC7
:1027000009EA0303058046803D4446441343013DE6
:10271000013E83628580C6805846FEF757F8244BF9
:10272000186848B1FEF76AF805462046FEF766F8D5
:102730006B6943616C6100E01C605146204600F00B
:1027400083FB19F0200F02D0204600F05FF919F04A
:10275000010F1FBF174A13680133136019F0400FB0
:1027600002D02046FFF734FF19F0020F0DD02046AB
:10277000FEF71EF8836A009043F002038362584616
:10278000FEF724F8204600F00BF90121204600F066
:1027900055FC204603B0BDE8F08F00BF2C2F002071
:1027A0003A2F002038000020882F00209F3F3F0054
:1027B000302F0020442F002010B5044623684068C5
:1027C000172B10D007DC0E2B0FD0142B15D1E1687E
:1027D00000F0AAF911E0222B0CD0282B0DD1BDE876
:1027E000104000F0DDB8E06010BD2146BDE81040AB
:1027F00000F02CB96FF0704300E00023E36010BDDF
:10280000034B1B685A7C034B53F82200704700BFF0
:1028100038000020882F002008B5034610B1FDF7CE
:10282000EDFFC369184608BD08B5034610B1FDF7B2
:10283000E5FF8369184608BD2DE9FF412A4D287838
:1028400000284DD10446294B294E1860294B2A4FA8
:102850001B68DFF8D0805864284BA8601880284B8C
:1028600018802046FEF7D4F8A8B14FF0FF320223BB
:102870008DE80C0043F6FF7300211A46039102967F
:102880000846FFF7E9FE6FF0704347F8240048F868
:10289000243000F085F80134022CE2D1194800F010
:1028A00007F9194800F004F9184800F001F9184830
:1028B00000F0FEF8174800F0FBF8174800F0F8F8B1
:1028C0000D4B186800F0A2F8FFF77AFE01232B7079
:1028D0001248134B6B6204B0BDE8F041FFF774B9C6
:1028E00004B0BDE8F08100BFF0290020302F0020A7
:1028F0004D53000838000020882F0020382F00207A
:102900003A2F0020602F0020502F0020702F002031
:10291000682F0020582F0020782F0020142A002034
:10292000F54A0008482F0020F0B50F4687B005464D
:10293000002833D0FDF73CFF866A0190B2072AD504
:1029400003C804ACF30384E8030002D5284600F072
:10295000D5FA5FB13868796802AB03C302A9019860
:1029600000F0AEF802A92046FFF770F8294620468D
:1029700000F0AEF878B140F601033340012B06D1E8
:10298000019B20461A6A996900F01BFB03E021466F
:10299000284600F0AFFA01A8FDF718FF07B0F0BD18
:1029A0000021FFF7C1BFF0B50F4685B015460646BA
:1029B00048B3FDF7FDFE836A04AC9B07024644F86A
:1029C0000C0D03D42046FDF701FF1CE0394602A898
:1029D000FFF759F80028F5D02046FDF7F7FE2A4604
:1029E00002A9304601F0D2FF3046FFF715FF04463A
:1029F0004CB120462A4602A9FFF7D5FF2046FDF735
:102A0000FDFE046AF4E705B0F0BD00000D4B70B5A3
:102A10001A680446966C1D4608B90B4B1C689464F2
:102A2000204600F0E2FAFFF703FC2046FDF7E6FE41
:102A30002B68B0F90020DA64B0F9022030461A653C
:102A400070BD00BF38000020302F002038B505468B
:102A50000C4641B1FFF7E8FE28B1A5602146BDE86C
:102A6000384000F0CDBA38BD1FB50E4B1B6893F847
:102A700054200AB10C4811E0986CFDF799FE02ACA5
:102A8000019003C884E8030001A8FDF79FFE074BEF
:102A9000196811B1204600F01BF8204602F0F2F947
:102AA00004B010BD38000020042A0020982F002018
:102AB000024B1A6802601860704700BFA42F002004
:102AC00003460846B3F90220B3F90010FEF737BDFC
:102AD00073B506460D462846FDF76AFE836A014631
:102AE00013F00204019004D101A8FDF76FFE204607
:102AF00016E03046FEF7AAFF019B01A89C6954B975
:102B0000FDF764FE074B1A68954208D05868431BCE
:102B10005842584104E0FDF759FE2546DBE7012005
:102B200002B070BD882F002037B50D4658B151B1A5
:102B3000FDF73EFE02AC44F8040D294600F005F80E
:102B40002046FDF743FE03B030BD00230B80028812
:102B50004B8083889B1A8B804288C3889B1ACB80CA
:102B6000704708B5FFF760FE18B1FDF747FEC06972
:102B700008BD08BD2DE9FF415D4F3B6893F8540047
:102B8000002800F0B1805B4A136A1446012B03DD74
:102B9000013B13620020A7E0D36902AD013302F1CB
:102BA000140696E80300D36185E8030023B99389EE
:102BB000ADF80830D38910E0138BD28A0133ADF819
:102BC0000A20B4F910201BB29A42ADF8083006DA98
:102BD000A389ADF80830638B0133ADF80A30BDF935
:102BE0000A20B4F91230DFF80C819A4204DD236A1E
:102BF0000020013B236277E03B68986CFDF7D8FD2D
:102C0000BDF90820B8F90C3001909A421CD1B8F8EF
:102C10001230ADF80E30B8F81030ADF80C30344B3F
:102C20001B689A6C5AB11046FDF7E8FD80460022F9
:102C30002946006A01F02CFCD8F81820F2E7019B25
:102C40002946D86901F024FCBDF80830ADF80C30F5
:102C50003B689A6C6AB11046FDF7D0FD00228046B1
:102C60002946006A01F098FB0028EDD1D8F8182019
:102C7000F0E7019B2946D86901F08EFB0028E3D1DB
:102C8000B4F91030BDF90820ADF80C309A4207DDD8
:102C900095E8030086E8030001A8FDF797FD97E794
:102CA0003B689A6C52B11046FDF7A8FD074600221A
:102CB0002946006A01F0B3FBBA69F3E704AF57F89D
:102CC0000C3D2946D86901F0AAFB3846FDF77EFD88
:102CD00044F62063E2699A4289DC95E8030086E8BD
:102CE0000300FFF7C1FE012004B0BDE8F08100BF82
:102CF00038000020F029002038B50546FFF731FFE5
:102D0000044654B1AC4207D02046FDF777FD036A74
:102D10009D4202D01C46F4E70024204638BD000046
:102D200010B50446FDF76AFD80690028F9D1054B0E
:102D30001A68944205D0586884420CBF01204FF0B5
:102D4000FF3010BD882F00202DE9F041394E86B0AC
:102D50003268804692F8543013B9FFF785FE64E07C
:102D6000354F3B6A3D460133012B3B625DDC906C85
:102D7000FDF71EFD4FF0FF33FB61304B00901B78D9
:102D800013B102AB083004E0836A13F002040CD0E4
:102D900002AB03C802AC83E80300B8F1000F0CD00B
:102DA00041462046FEF752FE07E03B6A6846013B7B
:102DB0003B62FDF70BFD204638E03368204F5A6C2C
:102DC000C2B1009B10685168019304AB03C33B6818
:102DD00033B101A8FDF7FAFC3868FDF7E9FC019072
:102DE00004A90198FFF76CFE204604A9FEF72EFE09
:102DF00001A800E06846FDF7E9FC396819B12046F2
:102E0000FFF766FE28B133682046996CFFF760FE35
:102E100018B92B6A013B2B6208E00A4B94E80300C7
:102E200083E80300FFF7A6FE00E0012006B0BDE83E
:102E3000F08100BF38000020F02900203C2F002046
:102E4000982F0020FC2900202DE9FF4106460C4662
:102E500000294CD0FDF7ACFC002384610190036293
:102E60002046FDF7A5FCC76904AC44F8080D2FB94E
:102E7000C66101A8FDF7AAFC204636E0019B384652
:102E80009D6AFDF795FC0DF1100805F0080548F85E
:102E9000040D75B9836A1A070BD5019B01A81F623F
:102EA000029BDE61FDF792FC2046FDF78FFC404659
:102EB0001BE02046FDF78AFC4046FDF787FC3846BC
:102EC000FDF79CFC0390039B1C6A0CB91E620BE08F
:102ED0002046FDF793FC002DF4D1836A1B07F1D542
:102EE000039B1E62019B1C6201A8FDF76FFC04B0EE
:102EF000BDE8F081202201F049BD000013B5044671
:102F000000B3FDF755FC836A01909B0717D5406A13
:102F100040B10D4B1B689C4204D0FDF7F7FE019BAE
:102F200000225A622046FFF777FC04463CB1204657
:102F3000FFF7E4FF2046FDF761FC046AF6E701A80D
:102F4000FDF744FC02B010BD9C2F00202DE9FF418D
:102F5000804617461D460C4681B30846FDF728FCFF
:102F6000866A0246B307019025D5414602A8FEF7BE
:102F70008AFD00B340F601033340012B07D10199CC
:102F80002B460A6A02A88969FFF7E0FF04E02A4697
:102F900002A9204601F0FAFC019BDC695CB1BC424D
:102FA00009D020462A4602A9FFF7FDFC2046FDF77E
:102FB00025FC046AF2E701A8FDF708FC04B0BDE8AF
:102FC000F0812023FFF7C2BFB0F90020B0F9043030
:102FD0009A4208DCB0F90230B0F906008342CCBF57
:102FE0000020012070470020704708B5FFF798FEC9
:102FF000002803DBBDE80840FEF7D8BA08BD000092
:1030000070B50D4C064623680D46132B12DCFDF7F8
:10301000F5FB02696E6042B12368284601332360E4
:1030200090472368013B236070BD2846BDE870408F
:10303000FFF7C2BB70BD00BF382A00201FB504AB2C
:1030400043F8101D19460190FFF7DAFF05B05DF84F
:1030500004FB0000F8B5274E0546F368B26B013B50
:103060000818134483420C4605D34B591BB94368D7
:103070001D4401F08BFEB36B9C420AD954F8047CCA
:10308000E71B3B682BB97B6838461D443C4601F082
:103090007DFE0F2306EBC302126C954203D213F19F
:1030A000FF33F7D223E00F2B21D8083306EBC302FE
:1030B00051686019002284E82400A160246140F86E
:1030C000045C04F1080001B1486006EBC303A16091
:1030D000E260586033680749EA1896F82930326090
:1030E0002BB9CB689B1A8A68934288BF8B602846AD
:1030F000F8BD00BF3C2A00202DE9F8430446394EB4
:1031000001F010FC356C3368AC4224BF033424F06A
:1031100003050C35AB42334C3ED3236B62689A42B5
:103120000FD97368776A013B7360736B4FEAC70806
:1031300003EB080252687262012203F8372057B984
:103140002AE0013B236300F0F5FF236B0133236387
:103150000028E6D020E00F2306EBC302126C954254
:103160000CD213F1FF33F7D208E094682CB16268F7
:10317000954214D9A268002AF7D101330F2B03D846
:1031800006EBC302526CF6E7284601F01FFE00284A
:10319000E1D0384601F0FCFC0020BDE8F883D4F80B
:1031A0000490336CC5EB09020C339A4238BF4D468C
:1031B000204601F0EBFD736B611998444D454FF0CB
:1031C0000003C8F8044027606560A360246141F8EB
:1031D000045C03DAC5EB0900FFF73CFF3846BDE8A5
:1031E000F88300BF3C2A002001207047F0B5DFF8CB
:1031F00034E00B4E50F8045B013AC5F307241EF887
:103200000470C5F30744345DEDB24FEAC424755D24
:1032100004EB47142C440C801944EBD1F0BD00BFE3
:103220005C7A00085C7900082DE9F8438146FEF7D6
:10323000B7FE0746FEF7CEFE0646E0B1002056F880
:1032400020304B4517D001308742F8DC002425465A
:103250006FF07F4856F825104846FDF7D9FA8045AB
:1032600088BF2C4605F1010588BF8046AF42F1DCDE
:103270002046BDE8F883BDE8F8830000074AC0F3A4
:103280000723D15C064AC0F30743D35CC0B2105C8D
:10329000DB0203EB41131844704700BF5C79000860
:1032A0005C7A00082DE9F84F81460D4616461F4608
:1032B00014468846DDF828B0DDF82CA039F8020B5A
:1032C000D847D047013C48F8040BF7D11F2F06D848
:1032D0003A4631462846BDE8F84FFEF708BABDE841
:1032E000F88F2DE9F84F80460D4616461F46894651
:1032F0000446DDF828B0DDF82CA014F8010BD847FF
:10330000D047331B18EB030F49F8040BF5D11F2FDF
:1033100006D83A4631462846BDE8F84FFEF7E7B9E9
:10332000BDE8F88F73B5154602AB214A43F8081D76
:1033300019460190126890471E4C01902368586905
:1033400040B90120FEF7CAFB2268D3695B693BB92B
:10335000194D22E02946FEF702F90028F1D124E0B8
:10336000164C9B68216841B1B2F92250019800992E
:10337000984723682846984714E000990198984791
:1033800010E001A8FEF766F923680646DB691B68B2
:1033900098472B680BB130469847009B013B002BA8
:1033A0000093EEDA0020FEF799FB02B070BD00BF7B
:1033B0004400002038000020202B00201C2B00207F
:1033C00030B48468D4F8EC40A44630BC60470000B8
:1033D0002DE9F04F8FB00393836805900993199BF3
:1033E0000691082B08920CD8199A4FF48B73D3408E
:1033F000DB0706D5984B1B681B7C03F00303022BED
:1034000010D0069B1C9A18989918089A039B02449E
:10341000013A0092099ACB18D2F8A840013B089AC9
:103420000998A047039B1C9A013B0D93069B089F9C
:1034300013440493049A0D9B13440C93089B189A0D
:10344000FB1A9A4240F35382199B013B0F2B00F267
:103450004882DFE813F01000C1004602480146022E
:1034600046024602D801460246024602460246028B
:10347000460246024102059B9C681D9B5B680B93BC
:10348000754B1B681B7C03F00303022B22D0032B1C
:1034900076D0012B74D01D9B039E1C9DDDF86CB073
:1034A000B3F80090BDF82CA04FF080089BF80020E6
:1034B00048FA05F31A4214BF5146494601352046E1
:1034C00001F0DCFE082D04BF0BF1010B0025013ECD
:1034D000ECD106E21B9B00250A932B46DDF810B0C9
:1034E000D4F86CA0DDF87080CDF81CB00A9A92F880
:1034F0000090802242FA08F219EA02090DD01BB9A5
:10350000D4F86CA0DDF81CB0BDF82C300135AAF859
:1035100000300AF1020A012313E0012B10D1079BAE
:103520000097013B3A4659462046D4F8A860B04778
:103530002A46E16E204601F072FE4D464B4600E001
:103540004B46079A08F101080132B8F1080F0792BB
:1035500008BF0A9A039904BF01320A92049A08BF6D
:103560004FF000080A4407999142BFD1002D00F0A6
:10357000B8810097D4F8A8600C9B3A465946A5E15B
:10358000039B049A1C9DDDF86C80079303EB020AF1
:103590004FF0800B079B98F80020C3EB0A094BFA09
:1035A00005F31A420DD0D4F8F4303A46494605984E
:1035B0009847A36A3A46434049460598D4F8F860CC
:1035C000B0470135079B082D04BF08F1010800250D
:1035D000013B0793DED184E1059B9C681D9B002B7A
:1035E00000F07F811B9B93F800B01B4B1B681B7C7A
:1035F00013F003030FD0022B40F07381049B0026CD
:103600000A931B9BD4F86CA0DDF870900B93DDF847
:103610001080324645E01C9D039EDDF86C904FF013
:10362000C008C5F103035A00C2F1060348FA03F3C8
:1036300003EA0B03D3401D9A013532F823102046CC
:1036400001F01CFE042D02BF99F801B0002509F11C
:103650000109013EE5D144E1380000201AB9D4F84F
:103660006CA0CDF82880079A1D9B013653F82230B4
:103670000AF1020A2AF8023C012209F10109B9F112
:10368000040F08F1010806D10B9B4FF0000993F8D5
:1036900001B001330B93049B03990B44984500F050
:1036A000A680C9F103056D00C5F10603C02141FAEA
:1036B00003F303EA0B03EB400793CFD1012A10D1A8
:1036C000009708F1FF333A460A992046D4F8A850EB
:1036D000A8473246E16E204601F0A1FD079E324622
:1036E000CBE7079AC9E7059B9C681D9B002B00F060
:1036F000F8801B9B93F800B07E4B1B681B7C13F07B
:1037000003030FD0022B40F0EC80049B00260A93A9
:103710001B9BD4F86CA0DDF870900B93DDF8108043
:10372000324642E01C9D039EDDF86C904FF0F0089D
:10373000C5F101039A00C2F1040348FA03F303EA56
:103740000B03D3401D9A013532F82310204601F0B7
:1037500095FD022D02BF99F801B0002509F101097C
:10376000013EE5D1BDE01AB9D4F86CA0CDF82880AF
:10377000079A1D9B013653F822300AF1020A2AF8F3
:10378000023C012209F10109B9F1020F08F1010817
:1037900006D10B9B4FF0000993F801B001330B9356
:1037A000039B04990B44984521D0C9F10105AD0054
:1037B000C5F10403F02141FA03F303EA0B03EB40E4
:1037C0000793D0D1012A10D1009708F1FF333A4670
:1037D0000A992046D4F8A850A8473246E16E204600
:1037E00001F01DFD079E3246CCE7079ACAE7002E7E
:1037F00077D000973A46D4F8A8500C9B0A992046F7
:10380000A847324665E0059B9C681D9B002B68D04D
:10381000384B1B681B7C13F003030FD0022B60D1C5
:10382000DDF818A0039A00255244D4F86C80DDF826
:103830006CB0CDF81CA02B460A9224E01B9D039B84
:103840001B9A5B1B1344002B4BDD15F8013B1D9AA3
:10385000204632F8231001F011FDF0E71BB9D4F82F
:103860006C80DDF81CA01D9B013553F8293008F150
:10387000020828F8023C0123079A013207920799AF
:103880000A9A914219D01BF8019BB9F1000FE5D1BA
:10389000012B10D1079B0097013B3A465146204629
:1038A000D4F8A860B0472A46E16E204601F0B7FC84
:1038B0004D464B46E0E74B46DEE70D9B069A134428
:1038C0007DB13A4651460097D4F8A8602046B047EB
:1038D0002A46E16E204602E0039A1B99099801F0FE
:1038E0009EFC1B9B1A9A013713441B93A6E50FB04D
:1038F000BDE8F08F380000202DE9F04F994D91B0D0
:1039000002932B680A90186E0E4605921D9CFCF7D8
:103910004FFF0E90406908B1FCF74AFF0F9010A8C6
:1039200050F8083DDB680693FCF750FF1E9B0F988C
:1039300006EB030B50B12B681B7C990706D11A9B31
:10394000059A00935946029BFDF7AAFE0599584631
:1039500001F09EFC1B9B0546102B34D10F9B33B10D
:10396000029B00264FEA4308DFF8009212E07E4BEC
:103970001E68002EF4D01C9B029A0193069B2146E0
:1039800000931A9BB04756E344B91C9B01361C4474
:10399000069B1D441A9B9E42F6DB47E3002DF4D0A4
:1039A0000F9F424621462846D9F800309847002FFD
:1039B000EBD0BB68059AD3F804A03244029B594669
:1039C0003846D047E1E71B9B172B44DD6FF003031C
:1039D00003FB0BF307936FF0010303FB0BF304935B
:1039E000029B4FF000085B4408931A9B984580F2B5
:1039F0001D83059B03EB080934B91C9B08F10108E2
:103A00001C44069B1D44F0E7002DF6D00F9F37B1F4
:103A1000BB684A465E685946029B3846B0475E46D8
:103A2000079B04EB030A049BEB1803930A9B5AF8C9
:103A300026001B691B689847039B23F816002FB1CB
:103A4000BB684A461B68314638469847089B013692
:103A50009E42EBD1D1E71B9B082B40F08980029B53
:103A6000059E5B0007936FF0010303FB0BF30393C9
:103A7000029BDFF8F0905B44013C0493059B1A9A8B
:103A8000F31A9A4204F1010140F3D0821F9B002BEC
:103A900036D0D9F800301B7C13F0030309D0022B79
:103AA0005AD1039BDDF83C80EB180893A2465F4691
:103AB00021E0079B2246E9182B4612F8010F1F9FB1
:103AC00057F8200023F8020B8B42F6D144E01F9AEE
:103AD00052F82330089A22F81730B8F1000F06D0B8
:103AE000D8F8083032461B68394640469847049B50
:103AF0000137BB4230D01AF8013F002BF7D0E6E780
:103B0000D9F800301B7C13F0030309D0022B23D11A
:103B1000039BDDF83C80EB180893A2465F4616E055
:103B2000124B029A28461B68984715E0089A22F81B
:103B30001730B8F1000F06D0D8F8083032461B68AD
:103B4000394640469847049B01379F4204D01AF8F3
:103B5000013F002BF7D0E9E7069B01361D441C9B73
:103B60001C448BE738000020EC290020480000208E
:103B7000AF4B1F9A002A08BF1A461E9B1F925B007C
:103B80000B931E9B9B000C93631C0393831C079356
:103B9000059B0493079B059A9C1E039B03F1FF3A28
:103BA000049B9B1A1A9A9A4240F340821B9B022B59
:103BB00000F0C980042B00F06481012B40F02A82C0
:103BC0009C4B1B68186EFCF7F3FD1E9B9A4AC3F1D1
:103BD0000805039B0E9013F8013CDDF83C90D65C81
:103BE0001E9B029F1E41934B1B681B7C03F003032B
:103BF000022B1FD0032B59D0012B57D0BD4228BF19
:103C00003D4622462B467F1B1F9806F0010150F8C7
:103C10002110013B22F8021B4FEA5606F4D104EBB7
:103C20004504002F00F08B801AF8013F824A0825D6
:103C3000D65CE3E7D8461F9B9B880893BD4228BF0C
:103C40003D467F1BB9F1000F24D01EB904EB45049B
:103C5000A84423E0F20709D5D9F80830049A1B6874
:103C6000414648469847BDF820302380013D08F181
:103C7000010804F1020411D07608E6E7F30748BF13
:103C8000BDF8203004F1020448BF24F8023C013D95
:103C900004D07608002EF1D104EB4504002F4ED05D
:103CA0001AF8013F644A0825D65CC7E70A9BD84644
:103CB0001B699B68984783B20993039B0893BD4295
:103CC00028BF3D467F1BB9F1000F1CD0A24608EB70
:103CD00005030D93F0070CD5D9F80830049A1B683A
:103CE000414648469847BAF80030099A5340AAF826
:103CF00000300D9B08F1010898450AF1020A4FEACD
:103D00005606E7D10FE02A462346F10744BF19883B
:103D1000099803F1020344BF414023F8021C013A11
:103D20004FEA5606F1D104EB450447B1089B424ADD
:103D30001B780825D65C089B01330893BFE70EA8C3
:103D4000FCF744FD66E11E9BC3F10405039BEDB245
:103D500013F8016C0B9B9E40364BF6B21B681B7C24
:103D600003F00303012B09D00AD3022B40F0528148
:103D70000F9BDDF8088008935F4636E0029B79E0F0
:103D8000029B9D42C8BFDDB22A4621465B1B1F9F96
:103D9000B00957F82000013AB60012F0FF0221F8EE
:103DA000020BF6B2F3D1013DEDB2013504EB45044F
:103DB000002B00F02F811AF8016F0425E1E716F0BF
:103DC000C00F24D10D9B09F10109B6009945F6B247
:103DD000F5D16B1C013704EB43042F44B8F1000FFD
:103DE00000F018811AF8016F04254545C8BF5FFA35
:103DF00088F5C5EB0808013DEDB27B1C2B440D9303
:103E00006FF0010303FB0743B9460993D7E71F9AF5
:103E1000B30952F82330099A22F81930089B002B75
:103E2000D0D09B68049A1B68494608989847C9E710
:103E30000C7D000838000020647D000816F0C00FDB
:103E400018BF088802F1FF321CBF80F0FF00088015
:103E5000B60012F0FF0201F10201F6B2EED1013D0F
:103E6000EDB2013504EB4504002B00F0D3801AF8C5
:103E7000016F04259D42C8BFDDB25B1B2A46214667
:103E8000DCE7039B0C9A13F8013C93406B4ADDB2CC
:103E90001268127C02F00302012A03D008D3022A1E
:103EA0003BD0B7E01E9B029AC3F10203DBB2AAE04B
:103EB0001E9B5BB11F9B2D0953F82530039A23806D
:103EC000029B079C013B1578924600E0029B012B68
:103ED0001ADD5910221D03F001030AEB01001F9F98
:103EE0002E0905F00F0557F8266057F8255022F8DF
:103EF000046C22F8025C1AF8015F3E46824502F12A
:103F00000402ECD104EB8104002B00F083801F9BA2
:103F10002D0953F8253023807CE01E9A0F9EC2B1F4
:103F200013F0F00F0BD01F9B2D0953F82530238081
:103F30002EB1B368049A1B68594630469847029BD5
:103F4000079C03F1FF38039B0BF101071D789A468C
:103F50000FE0DDF808805F460BE015F0F00F0CD1A4
:103F600015F00F0517D11AF8015F04340237A8F1D4
:103F70000208B8F1010FF0DC1AE01F9A2B0952F881
:103F800023302380002EEBD0B368049A1B68394697
:103F900030469847E4E71F9B53F825306380002E96
:103FA000E1D0B368049A1B68791C30469847DAE779
:103FB000B8F1000F2ED02D092CD01F9B53F82530BF
:103FC00023803EB3B368049A1B683946304698474D
:103FD00020E015F0C00F18BF068801F1FF311CBFAB
:103FE00086F0FF0606802D0111F0FF0100F10200AE
:103FF000EDB2EED1013BDBB2013304EB43044AB135
:104000001AF8015F02239342C8BFD3B2D21A1946ED
:104010002046DEE7049B1C9A01330493039B134460
:104020000393069A079B13440793B3E50F9B13B1C1
:104030000FA8FCF7CBFB11B0BDE8F08F38000020D3
:1040400013B584680092D4F8F040A04702B010BDC8
:1040500007B5009200F046F903B05DF804FB13B514
:1040600084680093D4F8F0400B46A04702B010BD1E
:104070002DE9F7432C4C1E4623688046186E0F46E8
:104080001546FCF795FB00904069A14608B1FCF786
:104090008FFB01902946384601F0FAF8D9F8003034
:1040A00004461A7CD2071FD5D8F810309B68984771
:1040B0001FFA80F8019820B183682A461B683946A8
:1040C00098472388013588EA03032380009BB54283
:1040D000DB681C44EEDD6846FCF778FB019B03B30C
:1040E00001A8FCF773FB1CE0DB6B009AD3F800908F
:1040F000019BD2F80C8063B101982A468368394647
:104100001B6801359847AE42A4F800904444F3DAA6
:10411000E1E7751B0135013DA4F800904444FAD154
:10412000D9E703B0BDE8F08338000020017001201A
:10413000704700002DE9F041224CE36A3BB9224B65
:104140009D685B680835B3FBF5F5023503E023692C
:104150001D1D05EBD305E800FEF7CEFF804660B3DA
:10416000616B226901EBC0035E68184B08361B685F
:10417000D2003046E76A9847226966631346C4F85E
:104180002C80691E8B4205D2013306EBC30040F838
:10419000043CF7E706EBC3064FF00008C6F80480BE
:1041A000636862629B1A2B446360256138463FB1A5
:1041B000FCF78EFA4046BDE8F0810120BDE8F081B1
:1041C000BDE8F0813C2A0020A02800204800002003
:1041D00010B48468D4F8F040A44610BC60470000D6
:1041E0002DE9F04F3E4E82468568306885B0007CF0
:1041F000884610F0010F14469946A3EB01003DD00C
:1042000043000393471C0E9B9C4266DCD5F8CCB060
:10421000EE6EBBF1000F01D1C34607E08DE8500000
:104220004B46224641465046D8470DE0CB450ADC76
:104230005946D5F8F4302246504698470BF1010B09
:1042400026F8020BF2E7EE6E039AB31E1644B34251
:1042500005D0A96A33F8022F4A401A80F7E7009484
:1042600022464B4641462846D5F8A860B0473A4614
:10427000E96E284600F0D3FF0134C4E70E9FBC1A54
:10428000671C00FB07770E980090D5F8A8402846D9
:10429000A0473368AE6EDB6B1C680123C4F30729AB
:1042A00006EB030AE4B2C7B1B846F92F28BF4FF0B6
:1042B000F9084FEA48013BB9D5F8203150469847F4
:1042C000C8EB07070023EEE7334672189342F3D09A
:1042D00083F8019003F8024FF8E705B0BDE8F08FCE
:1042E000380000202DE9F04F2A4F1D463B68144648
:1042F000DA6B87B012688346186E89460292FCF723
:1043000057FA21460490484600F0C2FF049A064638
:10431000D3685069C9EB0505039305F1010A88B11B
:10432000FCF746FA109B0DF118081B1B013348F8E7
:10433000040D2246009349465346FDF7B1F9404625
:10434000FCF744FABDF808806D00109B9C421ADC13
:104350003B681B7CDB070DD5DBF810309B6898476A
:10436000B31E80B2711933F8022F42408B421A807B
:10437000F9D104E0524641463046FDF737FC039B35
:1043800001341E44E1E704A8FCF720FA07B0BDE8B9
:10439000F08F00BF380000202DE9FF4106460F4690
:1043A0009046002502AC002E35D03046FCF700FACE
:1043B000866A0146B207019027D5B8F1000F04D0F4
:1043C00042462046FDF75FFB02E003C884E8030095
:1043D00021463846FDF7C3F8B8B1F30705D4BDF858
:1043E0000C30012501333B800FE0019BDE6966B193
:1043F000224639463046FFF7CFFF0028304618BF27
:104400000125FCF7FBF9066AF1E7019B01A81E6A8A
:10441000FCF7DCF9C7E7284604B0BDE8F081F0B549
:1044200005460E46174685B002AC7DB32846FCF71C
:10443000BFF9856A0146AA07019021D527B13A46FE
:104440002046FDF720FB02E003C884E80300214674
:104450003046FDF784F898B1EB0704D4BDF8083076
:10446000013BB3800CE0019BDD694DB1284622463B
:104470003146FFF7D4FF2846FCF7C0F9056AF4E798
:10448000019B01A81D6AFCF7A1F9CEE705B0F0BDBC
:10449000F0B507460C46164685B002AD002F48D051
:1044A0003846FCF785F9876A0146BB0701903AD583
:1044B00026B132462846FDF7E6FA02E003C885E851
:1044C000030029462046FDF74AF860B317F0010FB4
:1044D000019B1CD13EB1B3F90220B6F902309342E0
:1044E000B8BF134601E0B3F90230B4F90220934299
:1044F000B4F9062005DDBDF90A309A4213DB013B11
:1045000003E0BDF90E309A420DDDE3800BE0DF6978
:104510004FB138462A462146FFF7BAFF3846FCF726
:104520006DF9076AF4E7019B01A81F6AFCF74EF9D1
:10453000B4E705B0F0BD007870470120704783688C
:1045400001290CBF586C0020704700000129024867
:1045500018BF0020704700BFD87C00080139172918
:1045600028D8DFE801F01427272727272727270E39
:10457000101219290C272727272727231E250F4824
:1045800070470F4870470F4870470F4870470368DF
:104590009B68D3F80401704703689B68D3F8FC005C
:1045A000704703689B68D3F800017047074870475D
:1045B0000748704700207047064870473346000898
:1045C000B5460008A1460008E9450008F54E000878
:1045D00061460008494600081629024818BF002015
:1045E000704700BF9D0D000838B50546FBF7FEFE7D
:1045F0004FF4FA70AC68FCF789F8A066A06B2368EA
:104600000730C0105843FCF781F800220121E06612
:10461000A86901F095FC0546D4F81031204698476A
:104620002046D4F8B0309847002DD4BF0020012098
:1046300038BD10B50446FBF7D9FEA069002206215B
:10464000BDE8104001F07CBC10B50446FBF7CEFE7F
:10465000A06900220521BDE8104001F071BC70473F
:1046600073B5079E84680C4D76B1286888B90698A2
:104670000090D4F8A8602046B047D4F8A8302B604A
:10468000064BC4F8A83004E02B6813B1C4F8A83076
:104690002E6002B070BD00BF542900205F460008A4
:1046A00070B506460D461446FBF7A0FEB3681D60C4
:1046B0005C6070BD70B506460D461446FBF796FE6D
:1046C000B3689D60DC6070BD013980680D2923D816
:1046D000DFE801F0090B0D0F222222112507071335
:1046E000181D012070470068704740687047806857
:1046F0007047C0687047806B704788B1406B00F0AE
:104700000100704760B1406BC0F34000704738B1A2
:10471000406BC0F3800070474FF0FF3070470020BF
:104720007047012810B50C4608DCFCF771F928B178
:10473000C3682146BDE810409B6A1847002010BDA1
:10474000082904D0006820B1C3689B6A184710206C
:1047500070474FF0FF30704708B5FDF721FCB0F50A
:10476000807F10D07F2810D83F2810D81F2810D85D
:104770000F2810D8072810D8032810D8012894BF74
:10478000002001200CE008200AE0072008E00620B5
:1047900006E0052004E0042002E0032000E00220FF
:1047A000012303FA00F0013808BD4FF6FF7070478F
:1047B00038B5014605460120FFF7B3FF29460446F8
:1047C0000020FFF7AEFFA042B8BF204620EAE0700D
:1047D00038BD8368D3F8F430184708B50846114649
:1047E00000F056FD008808BD826800230B804B80D6
:1047F0001368013B8B805368013BCB80704737B512
:1048000080680D46FBF7D4FF0246B2F904301489E4
:10481000B2F906102B801C44538902A80B44013BBB
:10482000013C40F8042D6980AC80EB80FBF7CEFFA3
:1048300003B030BDF0B5541E03FB040002F1804408
:10484000013C0D4E0D4F01EB84010588013A4FEA02
:10485000D52416F804E005F01F04345DC5F34515B2
:104860007D5D04EB0E4404EB052441F80449A0EB04
:104870000300EAD1F0BD00BF9C7C00085C7C00080E
:1048800038B50446FDF78CFB0546FDF7A3FBA542B2
:1048900003D918B150F8240038BD002038BD0000FD
:1048A00070B50446194E1A4D06F184030367EB6890
:1048B00004F108011A1DDA6303F108029B631B640B
:1048C00042615A7C134B53F82200C3681B6B984714
:1048D000114B63666B68E361EB6808336361012326
:1048E0002376E376FDF78CFF032384F868306FF0BE
:1048F000704323636363A0643068FDF76FFCA868AE
:10490000FDF7A4FC054A064B1A6070BDB4280020D0
:104910002C0000200C2B0020706400084C7900084B
:10492000182B002070B5174A92F8283043BB01239A
:1049300082F82830144B996811B959688908996030
:104940005A2111621026002102EBC10006FA01F57E
:10495000013110290B4C0564F6D1586819680223FF
:104960002361A0F114030B4401256363A163E0609C
:104970005D6065626560FEF76DFBFFF7DBFB25633D
:1049800070BD00BF3C2A0020A0280020F0B585B0F3
:104990000D4606461746FBF731FF816A01908B07EB
:1049A0003ED52846FEF710FB002839D040F601031B
:1049B0000B40012B34D03046FBF7FAFE02AC024626
:1049C000019029462046FDF75EF82046FEF7FCFAE6
:1049D00018B344F22001019B9A6A03F108051140C3
:1049E00029B1224629462846FCF77EFD15E03A43C8
:1049F00094E8030085E803009A620A4A3046138867
:104A000001331380FEF78CF9074A012303FA00F003
:104A1000136803431360FCF70DFE01A8FBF7D6FEF5
:104A200005B0F0BD382F0020342F00200846704715
:104A30001046704708467047104670470068401A95
:104A4000013870474068801A013870470068401A82
:104A5000013870474068801A013870471046704727
:104A6000084670474068801A013870470068401A4D
:104A70000138704710467047084670474068801AF2
:104A8000013870470068401A0138704770470000CD
:104A900070B50B4D00240B4EC5F8804004353368CB
:104AA0007422214628469847336808222146064842
:104AB0009847064BDD60064B1C70064B1C6070BDB2
:104AC000B42800204C0000200C2B00202C000020DB
:104AD000082B0020FC2A002010B5044C2068FBF7AE
:104AE0000BFE034A00232360136010BD242B00201B
:104AF000D8290020184B70B500241C60174B184DA6
:104B00001C605C60174B18481C60184B184A1C60EE
:104B1000184B04701C60184B4460146054601C6097
:104B200084602B68214618220C309847134B21468D
:104B30001C60134B10221C605C6012482B68984765
:104B40002B6821461022104898472B682146BDE863
:104B5000704010220D481847A42F0020802F0020FD
:104B60004C000020442F0020F0290020982F002026
:104B7000902F00202C2F0020282F0020A02F002075
:104B8000882F0020602F0020502F0020702F002041
:104B9000074B10B55A685C6A01325A605A6B02EBD7
:104BA000C0014C60002102F83010586210BD00BFF7
:104BB0003C2A002008B5D0F8B830984708BD026CF0
:104BC000D0F8DC3090691847026CD0F8E03090697A
:104BD00018471FB50446D0F834312E209847216A73
:104BE000D4F85031684602319847226A0DEB4203EF
:104BF0005B88C3F3C4005B1103F4FC6303433DF81B
:104C00001200000200F47840184304B010BD13B540
:104C10000446D0F814312E209847216AD4F8303158
:104C2000684603319847236A0DEB03021DF80330F1
:104C30005078DB088008DB0243EA4013907843EAAF
:104C4000D00002B010BD2DE9F34791468A46984640
:104C50000A9C85680B9F00942846D5F8A860B04749
:104C60003946C9EB0404CAEB0806621C286C06FB33
:104C70000222D5F8E430806902B0BDE8F047184759
:104C80002DE9F34791468A4698460A9C85680B9F12
:104C900000942846D5F8A860B0473946C9EB04040B
:104CA000CAEB0806621C286C06FB0222D5F8E83025
:104CB000806902B0BDE8F0471847F0B587B00C9F97
:104CC0008568BC1A581A0097013400FB0444D5F8D3
:104CD000A87028460D9EB847D5F834312E20984745
:104CE000D5F85031296A02A89847D5F850310221E9
:104CF00002A89847BDF80A30013CC3F3C4024FEA4A
:104D0000631303F4FC6343EA0203BDF808204FEA8F
:104D1000022222F4FF6243EA020326F8023BE4D1B6
:104D200007B0F0BDF0B585B00A9F8568BC1A581A67
:104D30000097013400FB0444D5F8A87028460B9E68
:104D4000B847D5F814312E209847D5F83031296A64
:104D500002A89847D5F83031032102A898479DF85A
:104D60000930013C4FEA93029DF808304FEAD30323
:104D70004FEAC32343EA42139DF80A2043EAD203D1
:104D800026F8023BE6D105B0F0BD000010B50E4993
:104D900044680F2301EBC302126C94420A4A03D207
:104DA00013F1FF33F6D210BD0F2B0CD81168091B7D
:104DB00011608168C06801B1486008B1016010BD30
:104DC00002EBC303596410BD3C2A00202DE9F74FC4
:104DD000234F8346B846FE68BC6B013E264494E8E8
:104DE0002800A3BB61198E4231D954F805A0BAF14D
:104DF000000F2CD07B6B13F83A30012B27D1D8F859
:104E00002C302046D1F8049000930191FFF7BEFFAB
:104E10000199D8F83420086802EBC002546020469B
:104E20004A46FBF7A1F9009B04EB09019A4508BF2C
:104E3000D8F83430284604BF5B1BC8F83430FEF77E
:104E400009F9BBF1000F01D0584505D24D462C445D
:104E5000A642C4D8012000E0002003B0BDE8F08FD6
:104E60003C2A002008B5064B1B68596B814206D0CE
:104E70005863FCF7EDFEBDE80840FDF7B5B908BD85
:104E800038000020114B30B51C6885B0626C0546B7
:104E9000BAB11068516802AB03C30D4B186800B972
:104EA000A06CFBF785FC04AC02A944F80C0DFDF7DF
:104EB00007FE2046FBF78AFC02A82946FCF7C6FD40
:104EC00002A8FDF79DF905B030BD00BF38000020F5
:104ED000982F002008B5064B1B68196B814206D03D
:104EE0001863FCF7B5FEBDE80840FDF7B5B908BD8D
:104EF0003800002070B506460D461446FBF776FADA
:104F0000B368002B3BD0262D02D0272D16D070BDC4
:104F10009A6B102A02D0122A08D070BD184AC3F822
:104F2000DC40C3F8B820C3F8B42070BD154AC3F8FC
:104F3000E040C3F8BC20C3F8C02070BD9A6B102AB3
:104F400002D0122A0ED070BD3CB10F4AC3F8E44023
:104F5000C3F8CC20C3F8C82070BDC3F8CC40C3F858
:104F6000C84070BD3CB1094AC3F8E840C3F8D0203E
:104F7000C3F8D42070BDC3F8D040C3F8D44070BD8E
:104F8000BF4B0008C94B0008474C0008814C000883
:104F900070B5084B1B681A7C82EA0001490705D5E9
:104FA0009C6BD96B25680E6826600D6018741046DE
:104FB00070BD00BF38000020082902D0102905D09C
:104FC0007047064BC0F88C30054B03E0054BC0F82A
:104FD0008C30054BC0F89030704700BFFF5100087F
:104FE00075520008F75100086D52000807B5806936
:104FF0008DE806006A46032100F0A2FF03B05DF8C9
:1050000004FB006810B1C3681B6A184770470000B2
:1050100013B504466B460D4A1068516803C3D4F8B3
:105020008C302046362198472046636B02AAA18C1B
:10503000134413F8083C21F0E0011943D4F89030F0
:1050400089B202B0BDE81040184700BFFC640008F8
:105050002DE9F04104460E461546D0F88C302A2141
:105060009847E16AD4F8903031442046C1F30F21CB
:105070009847E16AB7B23944D4F890302046C9B2B3
:105080009847E16AD4F8903031442046C1F30F21AB
:105090009847E16AD4F8903039442046C9B298471D
:1050A000D4F88C3020462B219847216BD4F89030CF
:1050B00029442046C1F30F219847216BAEB23144F9
:1050C000D4F890302046C9B29847216BD4F890307C
:1050D00029442046C1F30F219847216BD4F8903022
:1050E00031442046C9B29847D4F88C302046BDE8F8
:1050F000F0412C21184710B48468D4F8F840A44635
:1051000010BC604773B51C46104B0D461B68164615
:10511000186EFBF74DFB31460090284600F0B8F8BA
:10512000009B0480586960B1FBF742FB836802ACC6
:1051300044F8040D1B683246294698472046FBF781
:1051400045FB6846FBF742FB02B070BD380000200B
:105150002DE9F041044688461F461646D0F88C30AB
:105160002A21069D9847E16AD4F8903041442046B0
:10517000C1F30F219847E16AD4F8903041442046AA
:10518000C9B29847E16AD4F8903039442046C1F357
:105190000F219847E16AD4F8903039442046C9B2CB
:1051A0009847D4F88C3020462B219847216BD4F8AF
:1051B000903031442046C1F30F219847216BD4F839
:1051C000903031442046C9B29847216BD4F89030D2
:1051D00029442046C1F30F219847216BD4F8903021
:1051E00029442046C9B29847D4F88C302046BDE8FF
:1051F000F0412C211847D0F834310846184770B5D3
:1052000005460C46D0F81431080A9847D5F81431F1
:10521000E0B2BDE87040184789B200F02FB82DE920
:10522000F04115460446806E0E460021A5B10346A6
:1052300036F8022B0131170AFA2903F8027B427073
:1052400007D1D4F820314FF4FA71A06E9847A36EBD
:105250000021013D1846E9E731B1D4F82031A06EB4
:105260004900BDE8F0411847BDE8F081D0F8383179
:1052700008461847D0F81831C8B218470B0A80F80A
:10528000713080F87210D0F8203102217130184747
:105290000E4B73B51B680646186E0D46FBF788FA71
:1052A000B0F90610C468691AB0F9045002AB761B55
:1052B0007600183604FB016543F8040D44191846BE
:1052C000FBF784FA204602B070BD00BF3800002012
:1052D000F7B5164604460D468768FFF77AFA01903F
:1052E000019ABB6A2946534020463246FFF703FF26
:1052F00003B0F0BD144BF7B51B680746186E164691
:105300000D46FBF755FA314600902846FFF7C0FFDF
:105310003B6904469B68984723885840009B20803F
:10532000586960B1FBF744FA836802AC44F8040D95
:105330001B683246294698472046FBF747FA6846DD
:10534000FBF744FA03B0F0BD38000020036810B545
:105350000E2B044602D00F2B09D020E0C3685A68F8
:10536000012A21D1BDE810401868FCF76BB90F4A3B
:10537000436811688B4206D0526893420CBF0123E8
:105380004FF0FF3300E00023094A52F823006FF08A
:105390007043984203D0FCF71FF9FBF761FA2046EF
:1053A000BDE81040FDF708BA10BD00BF882F0020EF
:1053B000482F002037B5FCF73BFFFCF78DFE044675
:1053C000002844D105462846FBF722FB019050B146
:1053D000C3680C215B6A01A898470346002834D0B3
:1053E0000198984704430135022DECD17CBBFCF7B2
:1053F00091FE184B1A686FF070439A4201D1002059
:1054000026E001242046FBF703FB0190C8B12046AB
:10541000FCF7CCF80420FCF731FF43F6FF730021C2
:105420001A460846FCF78CFD0020FCF727FF019B7D
:105430000E21DB6801A85B6A9847034608B1019812
:10544000984714F1FF34DDD2D9E7012000E020466F
:1054500003B030BDB4280020FEE77047704700005D
:1054600030B5B3F5804F05D06FF0704140F8221091
:10547000002030BD8C690B688D6823434C68898996
:10548000240144EA0524234343EA014150F8223031
:10549000014C23401943E9E70000F0CF10B50A683A
:1054A00050F8223023F0010340F822308C68082C99
:1054B00023D000234A682243CC681C430B69224353
:1054C0001A434B691A438B691A43CB691A430B6A17
:1054D0001A434B6A1A438B6A1A43CB6A1A430B6B03
:1054E0001A434B6B09681A4350F82130044C23408F
:1054F0001A4340F82120002010BD4023DAE70000C5
:105500008000F0FF30B5D1E9003443EA04138C6821
:105510008D89240244EA054423430C8A094D00EB9B
:10552000820005EB045423430C7D6D0105EB0464FC
:10553000896923430B43416801F040410B434360B9
:10554000002030BD0000F0FF10B54FF4205104489A
:10555000FBF7B6F8BDE810400248FCF73FB8000082
:105560005800002028650008704710B5040002D0DC
:10557000607910B106E0012010BD002020712046A6
:1055800000F004F801206071002010BD08B500682B
:105590000649884208D10648416941F0400141610D
:1055A000406900F04000009008BD0000003002405B
:1055B0000010024070B5044600F044F90546601C36
:1055C00002D004480078044400F03CF9401BA0429B
:1055D000FAD370BD1400002030B585B000200090D3
:1055E0000190029003901248016800291ED1012108
:1055F00001601048416941F48071416140690224B1
:1056000000F4807004904FF4F060CDE900040325AD
:1056100069460395084800F013F84CF6B300CDE94D
:10562000000469460395054800F00AF805B030BD4E
:105630000C0000200010024000180140001401403E
:105640002DE9F84FDFF8C891002409F1040A0AF1A6
:10565000040B23460F270BF1040ED1E00125A540D2
:1056600006EA0502AA4276D1DFF8A8C14E68A6EB89
:105670000C0866452BD00DDC032E34D005DC36B388
:10568000012E19D0022E2FD11BE0112E16D0122E72
:105690002AD119E0B8F5881F19D006DCB8F5803F8B
:1056A00015D0B8F5801F1FD111E0B8F5001F0ED03E
:1056B000B8F5041F18D10AE0CB6815E0CB681B1DB4
:1056C00012E0CB6808330FE0CB680C330CE08B683A
:1056D0002BB1012B4FF0080303D0456104E00423F4
:1056E00002E0056100E00023FF2A01D8064601E040
:1056F00000F104064FEA840501D9A5F12005D6F88A
:10570000008007FA05FC28EA0C0803FA05F548EAC8
:105710000508C6F800804D68ED0070D53E4DAE69B5
:1057200046F00106AE61AD6924F0030605F00105FF
:1057300000953A4D06EB050CDCF80850A607360F2D
:1057400007FA06F825EA0805DFF8D480404503D1BA
:105750004FF0000825E052E0DFF8C880404502D154
:105760004FF001081DE0DFF8C080404502D14FF046
:10577000020816E0DFF8B480404502D14FF003087C
:105780000FE0DFF8AC80404502D14FF0040808E09C
:10579000DFF8A080404502D14FF0050801E04FF04E
:1057A000060808FA06F848EA0508CCF808804D68AB
:1057B000D9F80060ED034D4601D5164300E096434D
:1057C0002E604D68DAF80060AD03554601D51643EA
:1057D00000E096432E604D68DBF80060ED025D4608
:1057E00001D5164300E096432E604D68DEF8006058
:1057F000AD02754601D5164300E096432E60641C49
:105800000A681646E2407FF429AFBDE8F88F000031
:10581000000401400000111000100240000001408F
:1058200000080140000C014000100140001401403C
:1058300000180140001C01400AB1016170470904D1
:10584000FBE700000148806870470000140000205A
:10585000024881680278114481607047140000207A
:10586000074810B5016841F010010160032000F005
:1058700067F8002000F006F800F024F8002010BDC2
:105880000020024070B50D4D04464FF47A7128781F
:10589000B1FBF0F00A490968B1FBF0F000F0EEFA54
:1058A00048B9102C07D200222146501E00F028F8DB
:1058B00000206C6070BD012070BD0000140000204D
:1058C000200000200C4808B5816941F00101816188
:1058D000816901F001010091C16941F08051C1610C
:1058E000C06900F0805000900448416821F0E061F8
:1058F00041F00071416008BD00100240000001400D
:10590000F0B40E4B1B680C46C3F30223C3F107052A
:10591000042D00D90425191D072901D2002300E018
:10592000DB1E012606FA05F1491E214099409E40E2
:10593000761E16403143F0BC00F023BC0CED00E0B5
:10594000064900F0070208684FF6FF03184040EAD6
:105950000220034A10430860704700000CED00E08D
:105960000000FA052DE9F0470F46050061D0434ECF
:10597000306800F00700B84209D2306820F0070014
:1059800038433060306800F00700B84251D12868D1
:105990003B4C810712D5400703D5606840F4E060B6
:1059A00060602878000703D5606840F4605060604C
:1059B0006068A96820F0F000084360602878C0079C
:1059C00028D06868012810D02168022810D08907E3
:1059D00000292EDA616821F0030101436160FFF7BD
:1059E00031FF804641F288390DE021688903EFE7F5
:1059F0008901EDE7FFF726FFA0EB0801494502D931
:105A00000320BDE8F0876068696800F00C00B0EB27
:105A1000810FEFD1306800F00700B8420BD9306831
:105A200020F0070038433060306800F00700B842CB
:105A300001D00120E5E72878400705D56068E968CE
:105A400020F4E060084360602878000706D56068AD
:105A5000296920F4605040EAC100606000F018F845
:105A60006168084AC1F30311515CC84006490860E7
:105A700006480068FFF706FF0020C2E7002002404A
:105A80000010024048640008200000201800002098
:105A900012A185B00FC98DE80F0014A0144A006848
:105AA00004905168134801F00C03042B10D0082B0C
:105AB0000ED1C1F38343C9031DF803000AD5516811
:105AC00004AAC1F34041515C0A4A5043B0FBF1F0D3
:105AD00005B0704708494843FAE70000020304058F
